:100000000C94C5010C94ED010C94ED010C94ED01E0
:100010000C94ED010C94ED010C94ED010C94ED01A8
:100020000C94ED010C94ED010C94ED010C94ED0198
:100030000C94ED010C94ED010C94ED010C94ED0188
:100040000C9411080C94ED010C9481080C945B083D
:100050000C94ED010C94ED010C94ED010C94ED0168
:100060000C94ED010C94ED016E616E6F3E20002743
:10007000206E6F7420666F756E642E2054797065E3
:10008000202768656C70272E004572726F723A20C7
:10009000436F6D6D616E642027006E616E6F3E2050
:1000A000006E616E6F3E2000082008006E616E6F6A
:1000B0003E20003A2000202D2000417661696C61CD
:1000C000626C6520636F6D6D616E64733A00302EF3
:1000D000332E302D6D76700056657273696F6E3AEF
:1000E00020004E616E6F4B65726E656C004B6572E1
:1000F0006E656C3A20005B324A5B48003D3D3D2016
:10010000456E6420544342203D3D3D002020202088
:100110007C2000207C2000207C20002000207C20EF
:1001200000200020207C20002D2D2D7C2D2D2D2D1C
:100130002D2D2D2D2D7C2D2D2D2D2D2D2D2D2D7C51
:100140002D2D2D2D2D2D2D2D2D2D7C2D2D2D2D2D90
:100150002D2D7C2D2D2D2D2D2D2D2D004944207C38
:10016000204E616D65202020207C20507269202067
:100170002020207C205374617465202020207C2066
:100180004578656373207C204C61737428C2B57315
:1001900029003D3D3D205461736B20436F6E7472A6
:1001A0006F6C20426C6F636B73203D3D3D006D733F
:1001B000007320006D200068200053797374656D12
:1001C00020757074696D653A2000206279746573DA
:1001D00000467265653A202000252900202F203234
:1001E0003034382062797465732028005352414DB1
:1001F0003A20200055736167653A20616463203CB2
:1002000070696E3E2028302D352900203D200041A8
:100210004443200050696E206F7574206F66207211
:10022000616E67652028302D3529004F4646004F06
:100230004E004C454420004C4544204F4646004C5F
:100240004544204F4E0055736167653A206C6564E4
:10025000203C6F6E7C6F66667C746F67676C653E72
:100260000053797374656D2072657365742E2E2E3C
:10027000002D2D2D2D2D2D2D2D2D2D2D2D2D2D2DDB
:100280002D2D2D2D2D2D2D2D2D2D2D2D2D2D2D2D9E
:100290002D2D2D2D2D2D2D2D2D2D2D2D005374611A
:1002A0007475733A2052656164792E20436F7265CC
:1002B000207363686564756C6572206F6E6C696E1F
:1002C000652E00206279746573004672656520535F
:1002D00052414D3A2000302E332E302D6D76700075
:1002E00056657273696F6E3A20004E616E6F4B6592
:1002F000726E656C00496E697469616C697A696EC9
:100300006720000A2D2D2D2D2D2D2D2D2D2D2D2D40
:100310002D2D2D2D2D2D2D2D2D2D2D2D2D2D2D2D0D
:100320002D2D2D2D2D2D2D2D2D2D2D2D2D2D2D002A
:100330006E616E6F3E200000000000240027002A3E
:100340000000000000250028002B00040404040421
:100350000404040202020202020303030303030172
:100360000204081020408001020408102001020449
:10037000081020000000080002010000030407002C
:100380000000000000000000510A11241FBECFEF42
:10039000D8E0DEBFCDBF12E0A0E0B1E0E6E0F6E1DC
:1003A00002C005900D92AE3DB107D9F723E0AEED46
:1003B000B2E001C01D92A53FB207E1F711E0C5EC24
:1003C000D1E004C02197FE010E94F20AC43CD1078B
:1003D000C9F70E94B3080C94010B0C940000E0E8EC
:1003E000F3E02491ECE6F3E09491E8E5F3E0E491A6
:1003F000EE23C9F0222339F0233001F1A8F4213093
:1004000019F1223029F1F0E0EE0FFF1FEF5BFC4FF6
:10041000A591B4912FB7F894EC91811126C09095D5
:100420009E239C932FBF08952730A9F02830C9F050
:10043000243049F7209180002F7D03C02091800057
:100440002F7720938000DFCF24B52F7724BDDBCF1B
:1004500024B52F7DFBCF2091B0002F772093B000E3
:10046000D2CF2091B0002F7DF9CF9E2BDACFECE6D2
:10047000F3E02491E8E5F3E08491882399F090E09B
:10048000880F991FFC01E95CFC4FA591B491FC0118
:10049000EF5BFC4F859194918FB7F894EC91E22B30
:1004A000EC938FBF08953FB7F89480914E039091DD
:1004B0004F03A0915003B091510326B5A89B05C0EE
:1004C0002F3F19F00196A11DB11D3FBFBA2FA92FD3
:1004D000982F8827BC01CD01620F711D811D911DD0
:1004E00042E0660F771F881F991F4A95D1F708953C
:1004F000AF92BF92CF92DF92EF92FF920F931F9332
:10050000CF93DF936C017B018B01040F151FEB016F
:100510005E01AE18BF08C017D10759F06991D60126
:10052000ED91FC910190F081E02DC6010995892B98
:1005300079F7C501DF91CF911F910F91FF90EF9057
:10054000DF90CF90BF90AF900895FC01538D448D04
:10055000252F30E0842F90E0821B930B541710F06E
:10056000CF96089501970895FC01918D828D98177B
:1005700061F0A28DAE0FBF2FB11D5D968C91928D53
:100580009F5F9F73928F90E008958FEF9FEF089584
:10059000FC01918D828D981731F0828DE80FF11D4D
:1005A000858D90E008958FEF9FEF0895FC01918D68
:1005B000228D892F90E0805C9F4F821B91098F7361
:1005C0009927089582E593E00E94D60221E0892BC5
:1005D00009F420E0822F089580E090E0892B29F033
:1005E0000E94E20281110C9400000895FC01A48D88
:1005F000A80FB92FB11DA35ABF4F2C91848D90E045
:1006000001968F739927848FA689B7892C93A08927
:10061000B1898C91837080648C93938D848D9813B1
:1006200006C00288F389E02D80818F7D8083089544
:10063000EF92FF920F931F93CF93DF93EC0181E032
:10064000888F9B8D8C8D98131AC0E889F9898081D9
:1006500085FF15C09FB7F894EE89FF896083E8890C
:10066000F98980818370806480839FBF81E090E0FE
:10067000DF91CF911F910F91FF90EF900895F62E8B
:100680000B8D10E00F5F1F4F0F731127E02E8C8D25
:100690008E110CC00FB607FCFACFE889F98980816A
:1006A00085FFF5CFCE010E94F602F1CFEB8DEC0F66
:1006B000FD2FF11DE35AFF4FF0829FB7F8940B8F87
:1006C000EA89FB8980818062CFCF0F931F93CF93FC
:1006D000DF938C01D0E0C0E0F801EC0FFD1F6491C6
:1006E000662341F082E593E00E941803892B11F004
:1006F0002196F2CFCE01DF91CF911F910F910895F6
:10070000CF93DF93EC01888D8823B9F0AA89BB8948
:10071000E889F9898C9185FD03C0808186FD0DC033
:100720000FB607FCF7CF8C9185FFF2CF808185FF54
:10073000EDCFCE010E94F602E9CFDF91CF9108956F
:100740006BE182E593E00E94180386EF90E00C9441
:100750006503A1E0B3E0F0E0E0E012962D913C915A
:10076000139723303105B9F424E0EE0FFF1F2A95CB
:10077000E1F7EF5FFC4F91838083138212827583D0
:100780006483168217821086118612861386148659
:10079000158681E008952D913C911197232B21F32B
:1007A00031965096E430F105C1F680E008950E943C
:1007B00037028091DE0291E089278093DE020E9459
:1007C000EF01E0910001E7FD29C020E1E202F00124
:1007D0001124EF5FFC4F828193810197F9F42FB7C9
:1007E000F89480914A0390914B03A0914C03B091EF
:1007F0004D032FBFE091000120E1E202F00111243E
:10080000EF5FFC4F8C509E4FAF4FBF4F8683978357
:10081000A087B18782E090E0938382830895FC01F2
:1008200001900020E9F73197AF01481B590BBC013B
:1008300082E593E00C94780289E591E00C940F0432
:10084000CF93DF930E946503EC010E941C048C0F80
:100850009D1FDF91CF9108958F929F92AF92BF928B
:10086000CF92DF92EF92FF9281E692E00E94200405
:100870000E9453024B015C0184E6C82ED12CE12C6E
:10088000F12C0E945302681979098A099B09683E74
:10089000734081059105A8F321E0C21AD108E1084F
:1008A000F10888EE880E83E0981EA11CB11CC114CB
:1008B000D104E104F10429F70C940000FF90EF90BB
:1008C000DF90CF90BF90AF909F908F9008958DEE66
:1008D00090E00E94650382EE90E00E94200488ED83
:1008E00090E00E9465038EEC90E00C9420048F92BF
:1008F0009F92AF92BF920F931F93CF93DF93CDB789
:10090000DEB7A1970FB6F894DEBF0FBECDBF19A218
:10091000423008F44AE08E010F5D1F4F842E912C67
:10092000B12CA12CA50194010E94D00AE62FB90197
:10093000CA01EA30F4F4E05DD801EE938D01232B77
:10094000242B252B79F790E080E0109719F0CD014A
:100950000E940F04A1960FB6F894DEBF0FBECDBF64
:10096000DF91CF911F910F91BF90AF909F908F908B
:100970000895E95CE1CF009711F00C940F0490E02A
:1009800080E008950F931F93CF93DF938AEB90E05D
:100990000E942004C1E0D1E007E311E086EB90E083
:1009A0000E946503888199810E94BB0483EB90E0DB
:1009B0000E9465038C819D81009711F00E940F04B5
:1009C0000E941C0426960C171D0741F7DF91CF915A
:1009D0001F910F910895CF92DF92EF92FF92CF93E4
:1009E000DF936C01990FEE08FF08F7FE19C06DE266
:1009F00082E593E00E941803EC0166277727CB017C
:100A00006C197D098E099F094AE00E9477048C0FBA
:100A10009D1FDF91CF91FF90EF90DF90CF900895D1
:100A20004AE0C701B601DF91CF91FF90EF90DF90D0
:100A3000CF900C947704EF92FF920F931F93CF9374
:100A4000DF9300D0CDB7DEB72091F1033091F203F0
:100A50002115310511F425EF33E08E010F5F1F4F93
:100A6000021B130B80E098E07C01E01AF10A8CEE87
:100A700091E00E946503C7010E94EB048CED91E0B8
:100A80000E94650384E68E9D90018F9D300D112498
:100A900037FF02C02150384F832F85958595859566
:100AA000932F990F990B0E94EB0489ED91E00E941E
:100AB000200481ED91E00E946503C8010E94EB04CF
:100AC0008AEC91E00E9420040F900F90DF91CF916B
:100AD0001F910F91FF90EF9008954F925F926F9248
:100AE0007F928F929F92AF92BF92CF92DF92EF92BE
:100AF000FF92C0904103D0904203E0904303F090F6
:100B000044038AEB91E00E946503C701B60120E827
:100B10003EEE46E350E00E94D00A49015A012B0103
:100B20003C014AE0C501B4010E94770487EB91E0E3
:100B30000E94650380E6882E8AEE982EA12CB12CA7
:100B4000C301B201A50194010E94D00ACA01B901F2
:100B50004AE00E94770484EB91E00E946503C7019C
:100B6000B601A50194010E94D00A28EE822E23E04E
:100B7000922EA12CB12CA50194010E94D00ACA0189
:100B8000B9014AE00E94770481EB91E00E9465037D
:100B9000C701B601A50194010E94D00A4AE00E9453
:100BA00077048EEA91E0FF90EF90DF90CF90BF90B6
:100BB000AF909F908F907F906F905F904F900C942C
:100BC0002004CF92DF92EF92FF920F931F93CF9367
:100BD000DF9382E991E00E9420048CE591E00E947D
:100BE000200488E291E00E942004C1E0D3E0C12CFF
:100BF000D12C76018A819B81039709F47CC04AE05D
:100C0000C701B6010E94770483E291E00E94650368
:100C1000888199810CE511E0009769F001E611E007
:100C200027E08332920739F00DE611E0875D9340AB
:100C300011F407E611E0C8010E94BB04F80101901D
:100C40000020E9F731971E2F101B173030F481E296
:100C500091E00E9465031F5FF8CF8DE191E00E9453
:100C600065038C819D8104E711E08430910538F49F
:100C7000880F991FFC01E15CFE4F00811181C801C2
:100C80000E94BB04F80101900020E9F731971E2F64
:100C9000101B173030F48BE191E00E9465031F5F59
:100CA000F8CF87E191E00E9465038A819B818430BF
:100CB0009105D0F5880F991FFC01E95CFE4F8081FA
:100CC00091810E94BB0483E191E00E9465036A85E3
:100CD0007B858C859D854AE00E9477048CE091E0BD
:100CE0000E9465036E857F8590E080E04AE00E9467
:100CF00077040E941C0460968FEFC81AD80AE80A8D
:100D0000F80A24E0C216D104E104F10409F072CF1C
:100D10008CEF90E0DF91CF911F910F91FF90EF90BA
:100D2000DF90CF900C94200488E791E0CACFCF9356
:100D3000DF93029734F486E492E0DF91CF910C9434
:100D40002004EB010E9437020A80DB81C02D6DEA8E
:100D500071E0CE010E94F80A892B49F481E00E94DB
:100D6000EF0181E08093DF028FE392E0E6CF60E85D
:100D700071E0CE010E94F80A892B41F480E00E94C4
:100D8000EF011092DF0287E392E0D7CF64E871E0D1
:100D9000CE010E94F80A892BA9F4C091DF0281E0FC
:100DA000C827C093DF028C2F0E94EF0182E392E0FC
:100DB0000E9465038BE292E0CC2309F4BECF8FE260
:100DC00092E0BBCFDF91CF9108950F931F93CF9304
:100DD000DF93029744F484EF91E0DF91CF911F916C
:100DE0000F910C942004FB01828193810E947E0A62
:100DF000EC018630910518F084E192E0EECF80643A
:100E000080937C0080917A00806480937A00809146
:100E10007A0086FDFCCF00917800109179008FE078
:100E200092E00E946503CE010E94EB048BE092E009
:100E30000E946503C8010E94EB04DF91CF911F91CE
:100E40000F910C941C046F927F928F929F92AF929D
:100E5000BF92CF92DF92EF92FF920F931F93CF93A7
:100E6000DF93CDB7DEB728970FB6F894DEBF0FBE7D
:100E7000CDBF16E000E282E593E00E94D60218168C
:100E800019060CF0A9C082E593E00E94B402E0913B
:100E9000E0028D3019F08A3009F07CC0EE2309F4AD
:100EA00072C0F0E0EF51FD4F10820E941C0468EA0E
:100EB00072E081EE92E00E949C0A9E012F5F3F4FFC
:100EC0006901F12CE12C722E6D2C009791F034E029
:100ED000E316F10499F0AFEFEA1AFA0AF6018193EA
:100EE00091936F0168EA72E090E080E00E949C0AB2
:100EF000ECCF81EA90E0E114F10401F189809A805D
:100F000081E0A82E81E0B82ED12CC12CD5016D91A5
:100F10007C91C4010E94F80A892BE1F41C9DF00128
:100F20001D9DF00D1124EF5FFE4F0280F381E02D37
:100F3000672D762DC70109958AE990E00E94650327
:100F40001092E002E1EEF2E0DF01202F1D922A95DF
:100F5000E9F791CFBFEFCB1ADB0AE6E0AE0EB11C8A
:100F6000F9E0CF16D10491F689E890E00E9465037C
:100F700089819A810E94BB048FE690E00E94200440
:100F800088E690E0DBCF0E941C048CEA90E00E948F
:100F9000650371CF883011F08F3769F4EE2309F4BF
:100FA0006ACFE150E093E002F0E0EF51FD4F108294
:100FB00088EA90E0ECCFEF3108F05DCF91E09E0F32
:100FC0009093E002F0E0EF51FD4F8083682F82E5BF
:100FD00093E00E9418034FCFE0910001E7FD0CC0A1
:100FE00030E1E302F0011124EF5FFC4F8281938135
:100FF000019711F41382128228960FB6F894DEBF7F
:101000000FBECDBFDF91CF911F910F91FF90EF9059
:10101000DF90CF90BF90AF909F908F907F906F9018
:1010200008951F920F920FB60F9211242F933F93A2
:101030008F939F93AF93BF9380914A0390914B03FB
:10104000A0914C03B0914D033091490323E0230F4D
:101050002D3758F50196A11DB11D209349038093AA
:101060004A0390934B03A0934C03B0934D0380919C
:101070004E0390914F03A0915003B09151030196FC
:10108000A11DB11D80934E0390934F03A093500375
:10109000B0935103BF91AF919F918F913F912F9149
:1010A0000F900FBE0F901F90189526E8230F029601
:1010B000A11DB11DD2CF1F920F920FB60F92112416
:1010C0002F933F934F935F936F937F938F939F9350
:1010D000AF93BF93EF93FF9382E593E00E94F602F4
:1010E000FF91EF91BF91AF919F918F917F916F9100
:1010F0005F914F913F912F910F900FBE0F901F90D6
:1011000018951F920F920FB60F9211242F938F9361
:101110009F93EF93FF93E0916203F09163038081CB
:10112000E0916803F091690382FD1BC0908180917A
:101130006B038F5F8F7320916C03821741F0E091F6
:101140006B03F0E0EE5AFC4F958F80936B03FF9199
:10115000EF919F918F912F910F900FBE0F901F9045
:1011600018958081F4CFCF93DF9300D0CDB7DEB751
:10117000789484B5826084BD84B5816084BD85B572
:10118000826085BD85B5816085BD80916E0081607E
:1011900080936E0010928100809181008260809324
:1011A0008100809181008160809381008091800026
:1011B0008160809380008091B10084608093B10051
:1011C0008091B00081608093B00080917A0084604B
:1011D00080937A0080917A00826080937A00809177
:1011E0007A00816080937A0080917A008068809391
:1011F0007A001092C100E0916203F091630382E0F3
:101200008083E0915E03F0915F031082E0916003C0
:10121000F091610380E1808310926A03E09166039C
:10122000F091670386E08083E0916403F0916503A9
:10123000808180618083E0916403F0916503808107
:1012400088608083E0916403F09165038081806809
:101250008083E0916403F091650380818F7D8083BA
:1012600083E093E00E94200485EF92E00E946503F2
:101270008AEE92E00E94200480EE92E00E946503D4
:1012800086ED92E00E9420048AEC92E00E946503C1
:101290002091F1033091F2032115310511F425EF6E
:1012A00033E0CE010196821B930B0E94EB0483EC8A
:1012B00092E00E9420048DE992E00E94200481E7E0
:1012C00092E00E942004E1EEF2E080E2DF011D9254
:1012D0008A95E9F71092E00280E393E00E946503AB
:1012E000E1E0F3E023E030E081E090E01182108261
:1012F0003383228395838483168217821086118616
:101300001286138614861586178616867096B3E0A5
:10131000E134FB0759F710924103109242031092F7
:101320004303109244032FB7F89480914A0390919D
:101330004B03A0914C03B0914D032FBF8093450305
:1013400090934603A0934703B093480361E070E095
:1013500083E297E00E94A90370E060E087ED93E0EC
:101360000E94A903EE24E394F12C8FB7F8944091E6
:101370004A0350914B0360914C0370914D038FBF12
:101380008091410390914203A0914303B0914403A3
:10139000840F951FA61FB71F0091450310914603A8
:1013A0002091470330914803801B910BA20BB30B94
:1013B0008093410390934203A0934303B09344036B
:1013C000409345035093460360934703709348034B
:1013D00083E0C82ED12C01E013E0B12CF80180810C
:1013E0009181892B09F451C0828193810297B9F4CC
:1013F0002FB7F89480914A0390914B03A0914C032E
:10140000B0914D032FBF4681578160857185841B44
:10141000950BA60BB70BB7FD02C013821282D80141
:1014200012968D919C911397892B79F514968D9135
:101430009C911597C816D90641F5B09200011396F4
:10144000FC92EE9212971A968D919D910D90BC91FF
:10145000A02D0196A11DB11DF80182879387A48755
:10146000B5870E9453022B01D801ED91FC9109959B
:101470000E94530264197509F80177876687828193
:101480009381019711F413821282B394005F1F4F6E
:10149000F4E0BF12A3CF41E0C41AD10808F09BCFFB
:1014A00064CFE2E5F3E01382128288EE93E0A0E0DD
:1014B000B0E084839583A683B7838BE491E0918326
:1014C000808385EC90E09587848784EC90E0978713
:1014D000868780EC90E0918B808B81EC90E0938B01
:1014E000828B82EC90E0958B848B86EC90E0978BDE
:1014F000868B118E128E138E148E0895FC01882710
:101500009927E89421912032E9F3293010F02E3008
:10151000C8F32B3241F02D3239F4689404C00E9494
:10152000C80A820F911D219120532A30C0F31EF466
:10153000909581959F4F08954FEE53E00E94A10A28
:101540000895FA01A191B081009719F41097E1F084
:10155000CD01DC01CD010D90002011F4C00113C0BC
:10156000FB012191222319F02015D9F7F3CFFB01BC
:101570002191201519F41E92119606C02223C1F75D
:101580000D900020A1F7D001FA01A193B083089536
:101590007AE0979F902D879F802D910D11240895BB
:1015A000A1E21A2EAA1BBB1BFD010DC0AA1FBB1F67
:1015B000EE1FFF1FA217B307E407F50720F0A21BD9
:1015C000B30BE40BF50B661F771F881F991F1A9446
:1015D00069F760957095809590959B01AC01BD0170
:1015E000CF010895EE0FFF1F0590F491E02D0994AF
:1015F000FB01DC018D91019080190110D9F3990B49
:061600000895F894FFCFED
:10160600FF8B01C2049001A8016704B001CC01A0C0
:1016160003D201EC01E105F20122026D0516022951
:10162600021B052D024402E506480265029706697B
:101636000285022C048B02A102AA02B302BC02C5D7
:1016460002C902D002D5020000000018037802A5E4
:10165600028003D602B402C8020D0A006E6F6E65E0
:10166600007368656C6C00626C696E6B0063757301
:10167600746F6D003F3F3F00554E4B4E4F574E0027
:101686006F666600746F67676C650068656C7000EE
:101696004C69737420617661696C61626C65206364
:1016A6006F6D6D616E64730076657273696F6E003F
:1016B60053686F77206B65726E656C207665727302
:1016C600696F6E2064657461696C7300636C656133
:1016D6007200436C65617220746865207465726D72
:1016E600696E616C2073637265656E007461736BFD
:1016F600730053686F77205461736B20436F6E7469
:10170600726F6C20426C6F636B732077697468200C
:1017160073746174730053686F772073797374659B
:101726006D20757074696D65006D656D0053686F29
:1017360077205352414D206D656D6F727920757318
:1017460061676500616463005265616420616E6172
:101756006C6F672070696E2028652E673A20616479
:1017660063203029006C656400436F6E74726F6C81
:10177600204C454420286F6E7C6F66667C746F67CC
:10178600676C652900726573657400536F66742013
:101796007265736574207468652073797374656DFA
:1017A6000052454144592020200052554E4E494E84
:1017B600472000424C4F434B45442000494E41438D
:1017C60054495645004C4F57004E4F524D414C0020
:0E17D6004849474800435249544943414C009A
:00000001FF
